:100000000C9434000C943E000C943E000C943E0082
:100010000C943E000C943E000C943E000C943E0068
:100020000C943E000C943E000C943E000C943E0058
:100030000C943E000C943E000C943E000C943E0048
:100040000C943E000C943E000C943E000C943E0038
:100050000C943E000C943E000C943E000C943E0028
:100060000C943E000C943E0011241FBECFEFD8E04C
:10007000DEBFCDBF0E94B6000C94E4000C940000DB
:100080000F931F93CF93DF93FC01A9E2B0E0CBE283
:10009000D0E00AE210E0683038F06850A3E2B0E047
:1000A000C5E2D0E004E210E08BE290E02AE230E02A
:1000B000483028F0485085E290E024E230E0118397
:1000C0000083D383C283B583A48366833087278369
:1000D000928781874387CF01DF91CF911F910F9145
:1000E0000895FC01A081B1814C91868121E030E02E
:1000F000B90102C0660F771F8A95E2F7CB018095A0
:1001000084238C93A281B3818C914681B90102C072
:10011000660F771F4A95E2F7862B8C93A781B085EF
:100120008C91938501C0220F9A95EAF7822B8C93CC
:100130000895FC01A481B5818C9190E0268102C0D4
:10014000959587952A95E2F7809590958170089509
:10015000FC01A185B2858C91938521E030E001C03E
:10016000220F9A95EAF782278C930895CDB7DEB7D0
:100170002C970FB6F894DEBF0FBECDBF4DE062E006
:100180008E010F5F1F4FC8010E944000C8010E94EE
:100190007100E12CF02E012F8F2D902F0E949900DD
:1001A000182F811579F0E1100DC08F2D902F0E942E
:1001B000A8002FEF83EC99E0215080409040E1F7B8
:0C01C00000C00000E12EE8CFF894FFCF53
:00000001FF
